:020000040800F2
:1000000090040020490100084B0F0008430F00082E
:10001000470F0008090A00086D15000800000000DD
:100020000000000000000000000000007D1000083B
:10003000110E0008000000004D0F0008911100088B
:100040006301000863010008630100086301000800
:1000500063010008630100086301000863010008F0
:1000600063010008630100086301000863010008E0
:1000700063010008630100086301000863010008D0
:1000800063010008630100086301000863010008C0
:1000900063010008630100086301000863010008B0
:1000A00063010008630100086301000863010008A0
:1000B0006301000863010008630100086301000890
:1000C0006301000863010008630100086301000880
:1000D0006301000863010008630100086301000870
:1000E0006301000863010008630100086301000860
:1000F0006301000863010008630100086301000850
:10010000630100086301000863010008630100083F
:10011000630100086301000863010008630100082F
:10012000630100086301000863010008630100081F
:10013000DFF810D000F0F2FA0048004785170008F9
:10014000AFF300809004002006488047064800472F
:10015000FEE7FEE7FEE7FEE7FEE7FEE7FEE7FEE777
:10016000FEE7FEE79511000831010008F0B480EACF
:100170000102D40F4200B2EB410F02D20246084600
:1001800011464A0042D0C30DDDB2C1F3C752AD1AC9
:10019000202D35DAC1F3160141F4000204B15242B8
:1001A000C5F1200602FA06F12A411044B3EBD05FF4
:1001B00023D0C4B1012DA0EBC35009DCF0BC4FF03B
:1001C000004202EAC352DBB200F5000000F01ABAA6
:1001D000400000F1807000EBC350A0F1807040EA55
:1001E000D170490009E0490841EAC071A0EBC35051
:1001F00000F50000400800EBC350F0BC00F0F9B976
:100200006142012202EB4101001BF6E7F0BC70479E
:1002100081F00041AAE780F00040A7E730B480EA0F
:10022000010202F0004530F0004221F0004013D0FE
:1002300090B1C30DD40DC2F31601C0F31600E41A39
:1002400041F4000140F400027D34914201D3641C6A
:1002500000E04900002C02DA30BC002070474FF467
:1002600000000023914201D3891A034340084FEA5A
:100270004101F7D151B1914202D14FF0004105E067
:1002800002D24FF0010101E06FF0010103EBC45015
:10029000284430BC00F0ADB92DE9FE4F804681EA1C
:1002A0000300C00F0C46009021F0004123F00045F0
:1002B000B8EB0200A94105D24046214690461C46B3
:1002C0000B46024623F00040104347D0270DC7F3EA
:1002D0000A00C3F30A510290401A019040286BDAD9
:1002E000C3F3130040F4801B0098924620B1002312
:1002F000D2EB030A63EB0B0B01985946C0F14002A5
:10030000504600F055F906460D4650465946019AAA
:1003100000F05DF910EB08006141002487EA1152FA
:1003200084EAE7731A4340D0009A62B3019A012A23
:100330004FEA075215DC001B61EB02014FF000424F
:1003400002EA0752CDE90042001C41F58011324615
:100350002B4600F094F903B0BDE8F08F40462146EB
:10036000F9E7001B61EB0201001C41F58013001846
:100370005B412018A2F5001747EB030140EAD57056
:10038000B6196D4111E06D084FEA360645EAC075B1
:100390004FEA0752001B61EB0201001C41F580117E
:1003A00049084FEA30000019514132462B4603B04C
:1003B000BDE8F04F00F054B900980122400000233E
:1003C000D0EB020263EBE073009821464FEAE07441
:1003D000B8EB000061EB0401E9E783F000435BE761
:1003E00081F0004158E72DE9FE4F81EA030404F053
:1003F000004421F0004100944FF0000B23F0004333
:1004000050EA01045ED052EA03045BD0C3F30A54FD
:10041000C1F30A552C44A4F2F3340194A0FB025416
:10042000C1F3130141F48011C3F3130343F48013A8
:1004300001FB024400FB034E840A970A44EA8154FC
:1004400047EA8357A4FB076802958D0A05FB0785D9
:100450004FEA932C04FB0C542705029D4FEA0658E3
:1004600047EA1637B5EB08056EEB070C870E920EC0
:1004700047EA811742EA8312A7FB0201B6EB0B01A0
:1004800064EB00042B0D43EA0C335E1844EB1C5064
:10049000DA465146E7FB0201C5F313044FEA0B337A
:1004A00043EA14534FEA0432019C43EA0603A4F1E1
:1004B0000C040294009CCDE900B400F0E0F803B015
:1004C000BDE8F08F00200146F9E79623002211468F
:1004D00000F098B80EB5C10F80EAE0700844CA0772
:1004E000002140F233438DE80E000A460B4600F02F
:1004F000C6F803B000BD00F0004220F00040C10D7E
:10050000C0F3160040F400007F2901DA0020704794
:10051000962903DCC1F19601C84001E09639884074
:10052000002AF4D04042704700F0004230F0004012
:100530000AD0C10D01F56071C0F3160042EA015105
:10054000C20840071143704700200146704701F080
:10055000004330B421F0004150EA010206D00A0DF8
:10056000A2F56072C1F31301002A02DC30BC002046
:100570007047440F44EAC104C100E01830BC00EBEE
:10058000C25000F036B80000002801DBC0F1004086
:10059000002901DBC1F1004181427047002801DBE5
:1005A000C0F10040002901DBC1F1004188427047E1
:1005B000202A04DB203A00FA02F100207047914023
:1005C000C2F1200320FA03F3194390407047202A18
:1005D00006DBCB17203A41FA02F043EAE07306E06B
:1005E00041FA02F3D040C2F120029140084319467B
:1005F00070470029A8BF7047401C490008BF20F081
:100600000100704710B4B0FA80FC00FA0CF050EA18
:10061000010404BF10BC704749B1CCF1200421FA99
:1006200004F411FA0CF118BF012121430843A3EB94
:100630000C01CB1D4FEA00614FEA102042BF0020A1
:1006400010BC704700EBC35010440029A4BF10BC7D
:100650007047401C490008BF20F0010010BC7047E3
:1006600010B5141E73F1000408DA401C41F10001BA
:1006700092185B411A4301D120F0010010BD2DE911
:10068000F04D92469B4611B1B1FA81F202E0B0FA08
:1006900080F220329046FFF78BFF04460F4640EA77
:1006A0000A0041EA0B0153465A46084313D011464B
:1006B00053EA010019D0C8F14002504600F040F85A
:1006C00005460E46504659464246FFF771FF08431D
:1006D00005D0012004E020463946BDE8F08D002019
:1006E000054346EAE0762C4337430A986305E40A5B
:1006F000A0EB08000022FD0A44EA47540A3002D564
:1007000000200146E9E7010510196941DDE90845C6
:1007100000196941BDE8F04DA2E70000064C074D05
:1007200006E0E06840F0010394E8070098471034C1
:10073000AC42F6D3FFF700FDBC170008DC17000839
:10074000202A04DB203A21FA02F00021704721FA26
:1007500002F3D040C2F1200291400843194670478D
:1007600021B1826842F00102826003E0826822F0D7
:1007700001028260704721B1826842F48072826017
:1007800003E0826822F48072826070470146002094
:100790008A6802F004020AB1012000E000207047DC
:1007A000014600208A6802F008020AB1012000E038
:1007B0000020704730B502460020002350680F4CDF
:1007C00020400D790C6844EA05242043506090686D
:1007D0000B4C2040D1E902542C434D7944EA4504A6
:1007E00020439060D06A20F470000C7C641EE4B258
:1007F000234340EA0350D06230BD0000FFFEF0FF0B
:10080000FDF7F1FFF0B504460D4600200021092D4B
:1008100011DDE068A5F10A0606EB4607072606FA91
:1008200007F18843A5F10A0606EB460603FA06F12E
:100830000843E0600CE0206905EB4507072606FA4F
:1008400007F1884305EB450603FA06F108432061EA
:10085000072A0FDA606B561E06EB86071F2606FA7C
:1008600007F18843561E06EB860605FA06F1084393
:10087000606322E00D2A0FDA206BD61F06EB860795
:100880001F2606FA07F18843D61F06EB860605FAEF
:1008900006F10843206310E0E06AA2F10D0606EBC2
:1008A00086071F2606FA07F18843A2F10D0606EB1C
:1008B000860605FA06F10843E062F0BD816841F062
:1008C00008018160704721B1826842F4A002826011
:1008D00003E0826822F4A00282607047816841F0E0
:1008E000040181607047000008B50121042000F078
:1008F0004BFB0420ADF8000000208DF80300694692
:10090000014800F086FA08BD0008014010B5FFF765
:10091000EBFF00F001F810BD00B591B001210846D1
:1009200000F022FB0121480200F02EFB334800F0CA
:1009300079F833480690334807900020089001204A
:10094000099000200A900B904FF480700C9080006A
:100950000D9020200E9000020F900020109006A90C
:10096000264800F005F90121244800F04FF8002046
:1009700001908DF8080001208DF809004FF46020E7
:1009800003900020049001208DF8140001A91C4858
:100990004C38FFF70FFF4FF4404000F0D9FA052321
:1009A0000122022116484C38FFF72CFF0121144880
:1009B0004C38FFF7E0FE012111484C38FFF7D0FE1C
:1009C0000F484C38FFF77AFF00BF0D484C38FFF74F
:1009D000E7FE0028F9D10A484C38FFF77FFF00BF37
:1009E00007484C38FFF7D2FE0028F9D1012104480E
:1009F0004C38FFF768FF11B000BD0000080002404E
:100A00004C2401404800002000BFFEE721B10268ED
:100A100042F00102026004E002684FF6FE731A40E1
:100A20000260704701684FF6FE72114001600021BC
:100A3000016041608160C1604B49884208D14A49E8
:100A40000839496841F00F01474A083A51608AE085
:100A500045491431884208D143490839496841F071
:100A6000F001414A083A51607DE03F49283188420F
:100A700008D13D490839496841F470613A4A083A59
:100A8000516070E038493C31884208D13649083914
:100A9000496841F47041344A083A516063E0324990
:100AA0005031884208D130490839496841F47021F1
:100AB0002D4A083A516056E02B496431884208D1EA
:100AC00029490839496841F47001274A083A5160B8
:100AD00049E025497831884208D1234908394968D5
:100AE00041F07061204A083A51603CE01F49884259
:100AF00006D1011F096841F00F01021F116032E0A9
:100B00001A491431884208D11849091F096841F06F
:100B1000F001164A121F116025E01449283188425D
:100B200008D11249091F096841F470610F4A121F68
:100B3000116018E00D493C31884208D10B49091F6A
:100B4000096841F47041094A121F11600BE007491E
:100B50005031884207D10549091F096841F47021C5
:100B6000024A121F11607047080002400804024048
:100B700010B50022026847F6F0739A430C6A8B683E
:100B800023430C6923434C6923438C692343CC6979
:100B900023434C6A23438C6A23431A430260CB6885
:100BA00043600B6883604B68C36010BD08B50121CA
:100BB000082000F0E9F94FF48050ADF80000102053
:100BC0008DF8030003208DF802006946044800F008
:100BD00020F94FF48051024800F0B1F908BD00003F
:100BE000000C01402DE9F05F00F0C8F800F068F853
:100BF000CC2000F0DBF8442000F0D8F800F0BEF87C
:100C000000F05EF8CC2000F0D1F8BE2000F0CEF865
:100C100000F0A2F8834600F09FF882464FEA0A20CF
:100C200004B244EA0B04002C0DDAE043401CFFF749
:100C300051FC074600220B4BFFF7D5FB0546FFF79B
:100C400086FC81460BE02046FFF744FC0746002265
:100C5000054BFFF7C8FB0546FFF779FC8146484680
:100C6000BDE8F09F0000B03F0000E43F10B5FFF783
:100C70009DFF00F083F800F023F810BD08B54FF495
:100C80008050ADF8000048208DF803006946024806
:100C900000F0BFF808BD0000000C014008B54FF49B
:100CA0008050ADF8000010208DF8030003208DF86F
:100CB00002006946014800F0ACF808BD000C014094
:100CC00010B50024FFF7DAFF04E0601CC4B2012075
:100CD00000F020FD4FF480510F4800F025F908B1D5
:100CE000642CF2DB642C01DB012010BD002404E045
:100CF000601CC4B2012000F00DFD4FF48051064885
:100D000000F012F908B9F02CF2DBF02C01DB012025
:100D1000EBE70020E9E70000000C014010B5FFF709
:100D2000BDFF4FF480510B4800F007F90A2000F096
:100D3000F1FCFFF7A3FF4FF48051064800F0F4F8F0
:100D4000012801D1012400E000242D2000F0E2FC64
:100D5000204610BD000C014070B50026002408E0BC
:100D6000FFF7DCFF054605FA04F03043C6B2601C0D
:100D7000C4B2082CF4DB304670BD000010B5FFF79C
:100D80008DFF4FF48051084800F0D7F840F2EE2074
:100D900000F0C0FC4FF48051034800F0D0F80F2061
:100DA00000F0B8FC10BD0000000C014070B5044616
:100DB000FFF774FF002526E004F00106641086B1F9
:100DC0004FF48051114800F0B8F8082000F0A2FC60
:100DD0004FF480510D4800F0B2F83A2000F09AFC30
:100DE0000FE04FF48051094800F0A7F8462000F0CA
:100DF00091FC4FF48051054800F0A1F8022000F06A
:100E000089FC681CC5B2082DD6DB70BD000C014002
:100E100070472DE9F04102460025002600200023FE
:100E20000024002791F803C00CF00F0591F803C0CF
:100E30000CF0100CBCF1000F03D091F802C04CEA8A
:100E4000050591F800C0BCF1000F31D014680020F6
:100E50002BE04FF0010C0CFA00F3B1F800C00CEAE3
:100E600003069E4220D183004FF00F0C0CFA03F7CB
:100E7000BC4305FA03FC4CEA040491F803C0BCF13E
:100E8000280F06D14FF0010C0CFA00FCC2F814C078
:100E90000AE091F803C0BCF1480F05D14FF0010CF6
:100EA0000CFA00FCC2F810C0401C0828D1D3146012
:100EB000B1F800C0BCF1FF0F34DD546800202EE013
:100EC00000F1080C4FF0010808FA0CF3B1F800C06B
:100ED0000CEA03069E4221D183004FF00F0C0CFA5E
:100EE00003F7BC4305FA03FC4CEA040491F803C081
:100EF000BCF1280F05D100F1080C08FA0CF8C2F873
:100F0000148091F803C0BCF1480F07D100F1080C20
:100F10004FF0010808FA0CF8C2F81080401C0828AD
:100F2000CED35460BDE8F0810246002093680B40A8
:100F30000BB1012000E00020704741617047016162
:100F4000704700BFFEE700BFFEE770477047000034
:100F500001460020034A506820F440400843506096
:100F6000704700000010024029B1064A526902434E
:100F7000044B5A6104E0034A52698243014B5A61AF
:100F8000704700000010024029B1064A92690243EE
:100F9000044B9A6104E0034A92698243014B9A61CF
:100FA000704700000010024030B5002100220024EC
:100FB00000232D4D6D6805F00C0121B1042905D0E9
:100FC000082923D105E0294D056022E0274D056061
:100FD0001FE0254D6D6805F47012234D6D6805F412
:100FE0008034022505EB92421CB9214D5543056022
:100FF0000BE01D4D6D6805F400351DB11C4D5543CA
:10100000056002E0194D5543056002E0174D05608B
:1010100000BF00BF144D6D6805F0F0010909154DC2
:101020006B5C0568DD4045600F4D6D6805F4E0615F
:10103000090A104D6B5C4568DD4085600A4D6D689E
:1010400005F46051C90A0B4D6B5C4568DD40C56015
:10105000054D6D6805F44041890B074D6B5CC56813
:10106000B5FBF3F5056130BD0010024000127A00B7
:1010700000093D006000002070000020704710B59E
:1010800000F002F810BD00000CB5002001900090A7
:101090003348006840F480303149086000BF304870
:1010A000006800F4003000900198401C0190009806
:1010B00018B90198B0F5A06FF1D12948006800F483
:1010C000003010B10120009001E000200090009855
:1010D000012843D12348006840F0100021490860EE
:1010E0000846006820F0030008600846006840F0E9
:1010F000020008601A48406819494860084640687C
:1011000048600846406840F480604860084640688F
:1011100020F47C1048600846406840F4E8104860BD
:101120000846006840F08070086000BF0C48006806
:1011300000F000700028F9D00948406820F0030052
:10114000074948600846406840F00200486000BF18
:101150000348406800F00C000828F9D10CBD0000DD
:101160000010024000200240042808D14FF0E02186
:10117000096941F004014FF0E022116107E04FF0EE
:10118000E021096921F004014FF0E022116170476C
:101190007047000010B51348006840F00100114985
:1011A000086008464068104908400E4948600846F3
:1011B00000680E4908400B4908600846006820F4A2
:1011C000802008600846406820F4FE0048604FF424
:1011D0001F008860FFF753FF4FF00060044908606C
:1011E00010BD0000001002400000FFF8FFFFF6FEF7
:1011F00008ED00E010B5FFF7F5FC18490860084657
:101200000068FFF778F94FF47A7190FBF1F201FB77
:101210001200642190FBF1F03030114908710F4841
:101220000068FFF768F9642190FBF1F201FB1200FE
:101230000A2190FBF1F03030094948712E20887165
:1012400006480068FFF757F90A2190FBF1F201FB0D
:10125000120030300249C87110BD00003800002073
:10126000780000202DE9FC5F4D480088FFF72DF93C
:1012700081464FF08B41FEF7D1FF0446FFF754F94A
:1012800007464FF06632474BFFF7ADF80546FFF7CC
:101290005EF94549086008460068FFF745F90646CB
:1012A0000F46424942480068FEF7B8FF834641496D
:1012B000FEF7AEFF8246FFF737F980463E4A3F4BC6
:1012C000FFF791F832463B46CDE90001FEF7E4FF17
:1012D0000446FFF73CF93A4908603A480068FFF7CE
:1012E00023F982468B4636480068FFF71DF9804691
:1012F000354A364BFFF777F8064652465B46FEF70F
:10130000CBFF0446FFF723F931490860002130483C
:101310000068FFF739F902D800202D4908602D49EF
:101320002B480068FFF73AF902D82A482849086094
:1013300027480068FFF7DFF84FF47A7190FBF1F06F
:1013400030302549087022480068FFF7D4F84FF480
:101350007A7190FBF1F201FB1200642190FBF1F035
:1013600030301D4948701A480068FFF7C4F86421FE
:1013700090FBF1F201FB12000A2190FBF1F03030FA
:101380001549887012480068FFF7B5F80A2190FBEC
:10139000F1F201FB120030300F49C870BDE8FC9F2C
:1013A0004800002066660A402C0000200000204112
:1013B000380000200000C841613255302AA993BF8F
:1013C000340000203C0000203D0AD7A3700D8BC0E4
:1013D0003000002000803B457800002000B585B03B
:1013E000012144F20400FFF7CFFD4FF40070ADF887
:1013F000100018208DF8130003208DF8120004A9A6
:101400001348FFF706FD4FF48060ADF8100004208C
:101410008DF8130004A90E48FFF7FBFC4FF416509B
:1014200000900020ADF80400ADF80600ADF808000B
:10143000ADF80C000C20ADF80A006946054800F034
:1014400025F80121034800F007F805B000BD0000B1
:10145000000801400038014021B1828942F4005265
:10146000828104E082894DF6FF731A4082817047C1
:1014700002460020B1F5007F00D100BF13880B4069
:101480000BB1012000E00020704700002DE9F0477B
:1014900086B005460E460024A24600BFA14600279E
:1014A000B08900B100BF2F462C8A4CF6FF70044073
:1014B000F08804432C82AC894EF6F3100440B088C7
:1014C00031890843718908430443AC81AC8A4FF6E3
:1014D000FF400440B0890443AC8201A8FFF764FDDB
:1014E0001F48874202D1DDF810A001E0DDF80CA012
:1014F000A88900F4004040B10AEBCA0000EB0A10D2
:1015000031684900B0FBF1F807E00AEBCA0000EBD4
:101510000A1031688900B0FBF1F86420B8FBF0F0E4
:1015200004012009642101FB1089A88900F400400E
:1015300040B1322000EBC900B0FBF1F000F0070031
:10154000044308E0322000EB09106421B0FBF1F005
:1015500000F00F0004432C8106B0BDE8F0870000C6
:1015600000380140C1F308028280704700BFFEE7E7
:101570000FB4054B10B503A9044A029800F017F800
:1015800010BC5DF814FB0000611700087400002017
:1015900002E008C8121F08C1002AFAD1704770473C
:1015A000002001E001C1121F002AFBD170472DE984
:1015B000F84F9946924688460546002706E02528BA
:1015C0000AD051464A4690476D1C7F1C2878002857
:1015D000F5D13846BDE8F88F002315F8011F1846ED
:1015E0002E2915D115F8011F04232A290DD06FF0DB
:1015F0002F022978A1F13004092C09D800EB8000D2
:1016000002EB400008446D1CF3E758F8040B6D1C16
:101610002A78002ADDD0632A07D0732A0FD010461B
:1016200051464A4690477F1C2AE018F8042B8DF853
:10163000002000218DF801106E46012103E058F8CA
:10164000046B4FF0FF315A074FF0000401D409E05A
:10165000641C84420BDA8C42FADB325D002AF7D13B
:1016600005E0641C8C42FCDB305D0028F9D1274486
:1016700004E016F8010B51464A469047641EF8D222
:101680006D1CA3E710B56FF00400FFF76DFD0A486D
:1016900000680A49B0FBF1F0094908700846007873
:1016A00000EB4001C1EBC0104FF6FF7101EAC00032
:1016B0000449088010BD00004C00002000127A0090
:1016C00044000020460000200146114A12884A4387
:1016D0004FF0E0235A6100229A611A46126942F0E3
:1016E00001021A6100BF4FF0E022106900F0010210
:1016F0001AB100F48032002AF5D04FF0E0221269CE
:1017000022F001024FF0E0231A6100229A61704733
:10171000460000200146114A12784A434FF0E02368
:101720005A6100229A611A46126942F001021A6156
:1017300000BF4FF0E022106900F001021AB100F47E
:101740008032002AF5D04FF0E022126922F0010227
:101750004FF0E0231A6100229A6170474400002094
:1017600070B504460D46E1B20548FFF7FBFE00BF29
:1017700040210348FFF77CFE0028F9D0204670BDC9
:1017800000380140FFF77EFFFFF770FAFFF726FEF3
:10179000FFF7BCF80BE0FFF72DFDFFF763FD0449F1
:1017A00004A0FFF7E5FE4FF47A70FFF78DFFF2E734
:1017B000780000202573200D0A000000DC170008C7
:1017C0000000002078000000901500085418000860
:1017D0007800002018040000A01500080000000098
:1017E00000000000000000000000000000000000F9
:1017F0000000000000000000000000000000803F2A
:10180000000000000000803F000000000000000019
:1018100000000000000000000A733E4500000000C8
:10182000000000000000000000A24A0400000000C8
:101830000000000001020304060708090000000080
:101840000102030401020304060708090204060852
:041850000000000094
:0400000508000131BD
:00000001FF
